:020000040800F2
:100000000000012039120008791000087F10000854
:10001000851000088B1000089110000800000000F7
:100020000000000000000000000000009710000821
:10003000A510000800000000B3100008C11000085F
:100040008912000889120008891200088912000824
:100050008912000889120008891200088912000814
:100060008912000889120008891200088912000804
:1000700089120008891200088912000889120008F4
:100080008912000889120008891200080000000087
:1000900000000000000000000000000089120008BD
:1000A00089120008891200088912000889120008C4
:1000B00089120008891200088912000889120008B4
:1000C00089120008891200088912000889120008A4
:1000D0008912000889120008891200080000000037
:1000E0008912000889120008891200080000000027
:1000F000000000000000000000000000891200085D
:100100000000000089120008891200088912000806
:1001100000000000000000000000000000000000DF
:100120008912000889120008891200088912000843
:10013000891200080000000000000000000000001C
:10014000000000000000000000000000891200080C
:100150008912000889120008891200088912000813
:100160008912000889120008000000000000000049
:10017000000000000000000000000000000000007F
:1001800000000000891200080000000000000000CC
:0401900089120008C8
:1001A00010B5054C237833B9044B13B10448AFF3B1
:1001B00000800123237010BD10010020000000000A
:1001C000703A000808B5034B1BB103490348AFF36D
:1001D000008008BD0000000014010020703A0008F3
:1001E00001F0FF01102A2BDB10F0070F08D010F8E8
:1001F000013B013A8B422DD010F0070F42B3F6D1EC
:10020000F0B441EA012141EA014122F007047FF004
:1002100000070023F0E80256083C85EA010586EA5B
:10022000010685FA47F5A3FA87F586FA47F6A5FA97
:1002300087F68EB9EED1F0BC01F0FF0102F00702A3
:1002400032B110F8013B013A83EA010313B1F8D14E
:100250000020704701387047002D06BF354603382F
:10026000073815F0010F07D1013015F4807F02BF68
:10027000013015F4C03F0130F0BC0138704700BFB9
:1002800053B94AB9002908BF00281CBF4FF0FF31FD
:100290004FF0FF3000F074B9ADF1080C6DE904CEF9
:1002A00000F006F8DDF804E0DDE9022304B0704751
:1002B0002DE9F047089D04468E46002B4DD18A4219
:1002C000944669D9B2FA82F252B101FA02F3C2F14C
:1002D000200120FA01F10CFA02FC41EA030E9440DD
:1002E0004FEA1C48210CBEFBF8F61FFA8CF708FBFE
:1002F00016E341EA034306FB07F199420AD91CEBD6
:10030000030306F1FF3080F01F81994240F21C8107
:10031000023E63445B1AA4B2B3FBF8F008FB10334F
:1003200044EA034400FB07F7A7420AD91CEB040484
:1003300000F1FF3380F00A81A74240F20781644454
:10034000023840EA0640E41B00261DB1D4400023D9
:10035000C5E900433146BDE8F0878B4209D9002D3D
:1003600000F0EF800026C5E9000130463146BDE8C7
:10037000F087B3FA83F6002E4AD18B4202D3824231
:1003800000F2F980841A61EB030301209E46002DE0
:10039000E0D0C5E9004EDDE702B9FFDEB2FA82F235
:1003A000002A40F09280A1EB0C014FEA1C471FFA93
:1003B0008CFE0126200CB1FBF7F307FB131140EA7A
:1003C00001410EFB03F0884208D91CEB010103F147
:1003D000FF3802D2884200F2CB804346091AA4B209
:1003E000B1FBF7F007FB101144EA01440EFB00FEDD
:1003F000A64508D91CEB040400F1FF3102D2A64542
:1004000000F2BB800846A4EB0E0440EA03409CE7E0
:10041000C6F12007B34022FA07FC4CEA030C20FA8D
:1004200007F401FA06F31C43F9404FEA1C4900FAAD
:1004300006F3B1FBF9F8200C1FFA8CFE09FB18112A
:1004400040EA014108FB0EF0884202FA06F20BD99D
:100450001CEB010108F1FF3A80F08880884240F2ED
:100460008580A8F102086144091AA4B2B1FBF9F031
:1004700009FB101144EA014100FB0EFE8E4508D92C
:100480001CEB010100F1FF346CD28E456AD90238B1
:10049000614440EA0840A0FB0294A1EB0E01A14296
:1004A000C846A64656D353D05DB1B3EB080261EB04
:1004B0000E0101FA07F722FA06F3F1401F43C5E9DE
:1004C000007100263146BDE8F087C2F12003D84014
:1004D0000CFA02FC21FA03F3914001434FEA1C4756
:1004E0001FFA8CFEB3FBF7F007FB10360B0C43EA48
:1004F000064300FB0EF69E4204FA02F408D91CEBF8
:10050000030300F1FF382FD29E422DD902386344F5
:100510009B1B89B2B3FBF7F607FB163341EA034195
:1005200006FB0EF38B4208D91CEB010106F1FF38E4
:1005300016D28B4214D9023E6144C91A46EA0046DB
:1005400038E72E46284605E70646E3E61846F8E66D
:100550004B45A9D2B9EB020864EB0C0E0138A3E7B6
:100560004646EAE7204694E74046D1E7D0467BE797
:10057000023B614432E7304609E76444023842E70F
:10058000704700BF2DE9B04FDAB000AFC7F82C01BB
:100590005A4A4FF00003C7E95823012387F857311F
:1005A0000023C7F8503177E0D7F85021D7F82C3125
:1005B00013441B78242B6AD1D7F85031C7F84C313B
:1005C00021E0D7F84C21D7F82C319918D7F84C21D5
:1005D000D7F85031D31A0978403307F594729A1836
:1005E0000B4602F8343CD7F84C31DA17C7F8003123
:1005F000C7F80421D7E94023C7E95623D7F84C317F
:100600000133C7F84C31D7F850315A1DD7F84C3167
:10061000934203DCD7F84C319F2BD2DDD7E9562328
:10062000A02A73F1000302DB354802F0A3FA00238D
:10063000C7F8483114E007F59A72D7F848311344E7
:100640001978304AD7F8483113441B78994202D0C0
:10065000002387F85731D7F848310133C7F84831BC
:10066000D7F84831052BE6DD97F85731002B0BD032
:10067000D7F85031DA17C7F8F830C7F8FC20D7E9B7
:100680003E23C7E958230BE0012387F85731D7F8F9
:1006900050310133C7F85031D7F850319F2B83DDEB
:1006A000D7E95823184911440B4304D1174802F0E5
:1006B00061FA0A23F2E2D7E95823C7E9502306E09A
:1006C000D7E95023541C43F10005C7E95045D7F83A
:1006D0004021D7F82C3113441B782C2B05D0D7E9B7
:1006E0005023A02A73F10003EADBD7E9502312F16B
:1006F000010843F10009C7E9508911E0FEFFFF7FBF
:10070000883A00082C3B000802000080DC3A000810
:10071000D7E9502312F1010A43F1000BC7E950ABAE
:10072000D7F84021D7F82C3113441B782C2B05D057
:10073000D7E95023A02A73F10003E9DBD7E950235E
:10074000511CC7F8F01043F10003C7F8F430D7E9A3
:100750003C34C7E95034D7F84021D7F82C31134442
:100760001B782C2B00F0AB80D7E95023511CC7F825
:10077000E81043F10001C7F8EC10D7E93A01C7E9E6
:100780005001D7F82C3113441B78D64A5373D7E95C
:100790005023511CC7F8E01043F10001C7F8E410E2
:1007A000D7E93801C7E95001D7F82C3113441B7839
:1007B000CC4A9373D7E95023511CC7F8D81043F1A2
:1007C0000001C7F8DC10D7E93601C7E95001D7F8B6
:1007D0002C3113441B78C34A1374D7E95023511C9E
:1007E000C7F8D01043F10001C7F8D410D7E934019D
:1007F000C7E95001D7F82C3113441B78B94A537418
:10080000D7E95023511CC7F8C81043F10001C7F8BD
:10081000CC10D7E93201C7E95001D7F82C31134485
:100820001B78B04A9374D7E95023511CC7F8C01005
:1008300043F10001C7F8C410D7E93001C7E95001FE
:10084000D7F82C3113441B78A64AD374D7E9502328
:10085000511CC7F8B81043F10001C7F8BC10D7E924
:100860002E01C7E95001D7F82C3113441B789D4A5B
:100870001375D7E95023511CC7F8B01043F100019C
:10088000C7F8B410D7E92C01C7E95001D7F82C31CB
:1008900013441B78934A5375D7E95023511CC7F86A
:1008A000A81043F10001C7F8AC10D7E92A01C7E945
:1008B0005001D7F82C3113441B788A4A9375D7E935
:1008C0005023511CC7F8A01043F10003C7F8A4300F
:1008D000D7E92834C7E95034D7F84021D7F82C316C
:1008E00013441B782C2B07D0D7F84021D7F82C3194
:1008F00013441B787B4AD375D7E95023911CC7F862
:10090000981043F10003C7F89C30D7E92634C7E9B3
:100910005034D7F84021D7F82C3113441B782C2BB6
:1009200000F0BA80D7E95023511CC7F8901043F16A
:100930000001C7F89410D7E92401C7E95001D7F89E
:100940002C3113441B78674A82F82730D7E95023AB
:10095000511CC7F8881043F10001C7F88C10D7E983
:100960002201C7E95001D7F82C3113441B785D4AA6
:1009700082F82830D7E95023511CC7F8801043F182
:100980000001C7F88410D7E92001C7E95001D7F862
:100990002C3113441B78534A82F82930D7E950236D
:1009A000511CB96743F10001F967D7E91E01C7E996
:1009B0005001D7F82C3113441B784A4A82F82B3067
:1009C000D7E95023511C396743F100017967D7E912
:1009D0001C01C7E95001D7F82C3113441B78414A58
:1009E00082F82C30D7E95023511CB96643F100013D
:1009F000F966D7E91A01C7E95001D7F82C31134439
:100A00001B78384A82F82D30D7E95023511C3966BB
:100A100043F100017966D7E91801C7E95001D7F819
:100A20002C3113441B782F4A82F82E30D7E95023FB
:100A3000511CB96543F10001F965D7E91601C7E911
:100A40005001D7F82C3113441B78264A82F82F30F6
:100A5000D7E95023511C396543F100017965D7E985
:100A60001401C7E95001D7F82C3113441B781D4AF3
:100A700082F83030D7E95023511CB96443F10001AA
:100A8000F964D7E91201C7E95001D7F82C311344B2
:100A90001B78144A82F83130D7E95023511C39644D
:100AA00043F100037B64D7E91034C7E95034D7F829
:100AB0004021D7F82C3113441B782C2B14D0D7E9C4
:100AC0005023511CB96343F10001F963D7E90E01CA
:100AD000C7E95001D7F82C3113441B78014A82F83A
:100AE000323001E000000020D7E95023511C396367
:100AF00043F100037B63D7E90C34C7E950340AE0C3
:100B0000D7E95023511CB96243F10003FB62D7E9D6
:100B10000A34C7E95034D7F84021D7F82C311344B0
:100B20001B782C2B05D0D7E95023A02A73F10003A2
:100B3000E6DBD7E95023511C396243F100037B62A5
:100B4000D7E90834C7E950340AE0D7E95023511CEB
:100B5000B96143F10003FB61D7E90634C7E95034BA
:100B6000D7F84021D7F82C3113441B782C2B05D013
:100B7000D7E95023A02A73F10003E6DBD7E950231D
:100B8000511C396143F100037B61D7E90434C7E9A3
:100B900050340AE0D7E95023511CB96043F10003F7
:100BA000FB60D7E90234C7E95034D7F84031D7F8B1
:100BB0002C2113441B782C2B05D0D7E95023A02AD5
:100BC00073F10003E6DBD7E95023511C396043F190
:100BD00000037B60D7E90034C7E95034D7F84031CF
:100BE000C7F83C312CE0D7F83C31D7F82C2113441E
:100BF0001B782C2B45D0D7F83C31D7F82C21D118B5
:100C0000D7F83C313F33DA17C7F82031C7F8242131
:100C1000D7E95023D7E948452046801AC7F818017C
:100C2000284660EB0303C7F81C310A781E4BD7F83F
:100C300018110B441A70D7F83C310133C7F83C3116
:100C4000D7F83C31DA17C7F81031C7F81421D7E9C3
:100C50005023D7E944452146891AC7F80811294687
:100C600061EB0303C7F80C31D7E942120B46092B9D
:100C7000134673F1000305DAD7F83C319F2BB2DD40
:100C800000E000BFD7E95023A02A73F1000304DB82
:100C9000064801F06FFF142300E00023184607F513
:100CA000B477BD46BDE8B08F00000020043B0008CB
:100CB00080B5AAB000AF00F0E9FA00F041F800F00A
:100CC000F3F800F09DF800F0C5F8184801F052FF65
:100CD000642000F04DFB39464FF47A73A02214488B
:100CE00001F00BFB3B461846FFF74CFCC7F8A00091
:100CF0001049114801F0B8FE0023C7F8A4300FE0F6
:100D00000E4AD7F8A430134419780A4AD7F8A43009
:100D100013440A461A70D7F8A4300133C7F8A43038
:100D2000D7F8A4304C2BEBD9D2E700BF343B0008F6
:100D300070010020000000203C3B00085000002013
:100D400080B594B000AF07F120033022002118468F
:100D500001F082FE07F10C0300221A605A609A60CB
:100D6000DA601A610023BB60234B1B6C224A43F0FC
:100D700080531364204B1B6C03F08053BB60BB6833
:100D800000237B601D4B1B6823F440431B4A43F444
:100D900000431360194B1B6803F440437B607B687E
:100DA00002233B620123FB6210233B630023BB63EE
:100DB00007F12003184600F069FD0346002B01D01F
:100DC00000F0B0F80F23FB6000233B6100237B6140
:100DD0000023BB610023FB6107F10C0300211846CF
:100DE00000F0CCFF0346002B01D000F09BF800BFC1
:100DF0005037BD4680BD00BF003802400070004043
:100E000080B500AF114B124A1A60104B4FF4E1321B
:100E10005A600E4B00229A600C4B0022DA600B4B9A
:100E200000221A61094B0C225A61084B00229A6178
:100E3000064B0022DA61054801F080F90346002BD9
:100E400001D000F06FF800BF80BD00BF2C01002072
:100E50000010014080B500AF114B124A1A60104BD0
:100E60004FF416525A600E4B00229A600C4B00222F
:100E7000DA600B4B00221A61094B0C225A61084BB5
:100E800000229A61064B0022DA61054801F056F90A
:100E90000346002B01D000F045F800BF80BD00BF25
:100EA000700100200044004080B483B000AF0023F4
:100EB0007B60094B1B6B084A43F001031363064B2D
:100EC0001B6B03F001037B607B6800BF0C37BD46E2
:100ED0005DF8047B704700BF0038024080B582B0E7
:100EE00000AF7860391D4FF47A730422034801F093
:100EF00072F97B6818460837BD4680BD2C0100207A
:100F000080B582B000AFF91D4FF47A730122044816
:100F100001F0F3F9FB7918460837BD4680BD00BFE4
:100F20007001002080B400AF72B600BFFEE7000081
:100F300080B483B000AF00237B60104B5B6C0F4A22
:100F400043F4804353640D4B5B6C03F480437B603C
:100F50007B6800233B60094B1B6C084A43F08053BD
:100F60001364064B1B6C03F080533B603B6800BF6F
:100F70000C37BD465DF8047B704700BF0038024067
:100F800080B58CB000AF786007F11C0300221A60B6
:100F90005A609A60DA601A617B681B68324A934231
:100FA0002DD10023BB61314B5B6C304A43F0100301
:100FB00053642E4B5B6C03F01003BB61BB690023D1
:100FC0007B612A4B1B6B294A43F001031363274BB8
:100FD0001B6B03F001037B617B694FF4C063FB6112
:100FE00002233B6200237B620323BB620723FB6275
:100FF00007F11C0319461E4800F0C4FA30E07B6874
:101000001B681C4A93422BD100233B61174B1B6C7E
:10101000164A43F400331364144B1B6C03F400337F
:101020003B613B690023FB60104B1B6B0F4A43F095
:10103000010313630D4B1B6B03F00103FB60FB68A3
:101040000C23FB6102233B6200237B620323BB6210
:101050000723FB6207F11C031946054800F092FACA
:1010600000BF3037BD4680BD00100140003802404F
:10107000000002400044004080B400AFFEE780B4AE
:1010800000AFFEE780B400AFFEE780B400AFFEE73C
:1010900080B400AFFEE780B400AF00BFBD465DF88E
:1010A000047B704780B400AF00BFBD465DF8047B91
:1010B000704780B400AF00BFBD465DF8047B704749
:1010C00080B500AF00F034F900BF80BD80B586B0B8
:1010D00000AFF860B9607A6000237B610AE0FFF737
:1010E0000FFF0146BB685A1CBA60CAB21A707B690E
:1010F00001337B617A697B689A42F0DB7B68184632
:101100001837BD4680BD80B586B000AFF860B960C5
:101110007A6000237B6109E0BB685A1CBA601B78C7
:101120001846FFF7DBFE7B6901337B617A697B68D8
:101130009A42F1DB7B6818461837BD4680BD80B403
:1011400083B000AF78604FF0FF3318460C37BD46D0
:101150005DF8047B704780B483B000AF786039607D
:101160003B684FF400525A60002318460C37BD46C6
:101170005DF8047B704780B483B000AF78600123D2
:1011800018460C37BD465DF8047B704780B485B0C7
:1011900000AFF860B9607A60002318461437BD4686
:1011A0005DF8047B7047000080B586B000AF7860C2
:1011B000144A154BD31A7B617B693B61134B1B6847
:1011C000002B02D1114B124A1A60104B1A687B682F
:1011D00013443A699A4207D201F014FC03460C22E8
:1011E0001A604FF0FF3309E0084B1B68FB60074BA8
:1011F0001A687B681344054A1360FB681846183761
:10120000BD4680BD0000012000040000B4010020A4
:10121000D001002080B400AF064BD3F88830054AD7
:1012200043F47003C2F8883000BFBD465DF8047B0C
:10123000704700BF00ED00E0DFF834D00D480E49E4
:101240000E4A002302E0D458C4500433C4188C4220
:10125000F9D30B4A0B4C002301E013600432A24285
:10126000FBD3FFF7D7FF01F0D3FBFFF721FD70475A
:10127000000001200000002010010020043C0008B4
:1012800010010020CC010020FEE7000080B500AF77
:101290000E4B1B680D4A43F4007313600B4B1B6825
:1012A0000A4A43F480631360084B1B68074A43F4FF
:1012B00080731360032000F031F90F2000F008F86C
:1012C000FFF736FE0023184680BD00BF003C0240F9
:1012D00080B582B000AF7860124B1A68124B1B7851
:1012E00019464FF47A73B3FBF1F3B2FBF3F31846EC
:1012F00000F03BF90346002B01D001230EE07B6890
:101300000F2B0AD8002279684FF0FF3000F011F956
:10131000064A7B681360002300E001231846083763
:10132000BD4680BDA0000020A8000020A400002031
:1013300080B400AF064B1B781A46064B1B6813445B
:10134000044A136000BFBD465DF8047B704700BFD0
:10135000A8000020B801002080B400AF034B1B6838
:101360001846BD465DF8047B704700BFB8010020F9
:1013700080B584B000AF7860FFF7EEFFB8607B689F
:10138000FB60FB68B3F1FF3F05D00A4B1B781A46A0
:10139000FB681344FB6000BFFFF7DEFF0246BB683B
:1013A000D31AFA689A42F7D800BF00BF1037BD467B
:1013B00080BD00BFA800002080B485B000AF786079
:1013C0007B6803F00703FB600C4BDB68BB60BA680B
:1013D0004FF6FF031340BB60FB681A02BB68134360
:1013E00043F0BF6343F40033BB60044ABB68D3607F
:1013F00000BF1437BD465DF8047B704700ED00E088
:1014000080B400AF044BDB681B0A03F007031846E7
:10141000BD465DF8047B704700ED00E080B483B00A
:1014200000AF03463960FB7197F90730002B0ADBE8
:101430003B68DAB20C4997F907301201D2B20B447B
:1014400083F800230AE03B68DAB20849FB7903F02D
:101450000F03043B1201D2B20B441A7600BF0C37C3
:10146000BD465DF8047B704700E100E000ED00E060
:1014700080B489B000AFF860B9607A60FB6803F0AF
:101480000703FB61FB69C3F10703042B28BF042397
:10149000BB61FB690433062B02D9FB69033B00E007
:1014A00000237B614FF0FF32BB6902FA03F3DA439A
:1014B000BB681A407B699A404FF0FF317B6901FAA3
:1014C00003F3D9437B680B40134318462437BD46CA
:1014D0005DF8047B7047000080B582B000AF786093
:1014E0007B68013BB3F1807F01D301230FE00A4AFF
:1014F0007B68013B53600F214FF0FF30FFF78EFFF9
:10150000054B00229A60044B07221A6000231846FC
:101510000837BD4680BD00BF10E000E080B582B056
:1015200000AF78607868FFF747FF00BF0837BD4617
:1015300080BD80B586B000AF0346B9607A60FB73AA
:1015400000237B61FFF75CFF78617A68B96878698E
:10155000FFF78EFF024697F90F3011461846FFF746
:101560005DFF00BF1837BD4680BD80B582B000AFBB
:1015700078607868FFF7B0FF034618460837BD4625
:1015800080BD000080B489B000AF7860396000236E
:101590007B6100233B610023BB610023FB6159E1B8
:1015A0000122FB6902FA03F37B613B681B687A69DD
:1015B00013403B613A697B699A4240F048813B683D
:1015C0005B6803F00303012B05D03B685B6803F005
:1015D0000303022B30D17B689B68BB61FB695B0016
:1015E000032202FA03F3DB43BA691340BB613B6891
:1015F000DA68FB695B0002FA03F3BA691343BB6163
:101600007B68BA699A607B685B68BB610122FB6991
:1016100002FA03F3DB43BA691340BB613B685B68C2
:101620001B0903F00102FB6902FA03F3BA691343D1
:10163000BB617B68BA695A603B685B6803F003036F
:10164000032B17D07B68DB68BB61FB695B0003225F
:1016500002FA03F3DB43BA691340BB613B689A6843
:10166000FB695B0002FA03F3BA691343BB617B6851
:10167000BA69DA603B685B6803F00303022B23D18D
:10168000FB69DA087B68083253F82230BB61FB69DA
:1016900003F007039B000F2202FA03F3DB43BA694E
:1016A0001340BB613B681A69FB6903F007039B00A9
:1016B00002FA03F3BA691343BB61FB69DA087B687A
:1016C0000832B96943F822107B681B68BB61FB696B
:1016D0005B00032202FA03F3DB43BA691340BB61E8
:1016E0003B685B6803F00302FB695B0002FA03F3EB
:1016F000BA691343BB617B68BA691A603B685B686F
:1017000003F44033002B00F0A2800023FB60574B12
:101710005B6C564A43F480435364544B5B6C03F454
:101720008043FB60FB68524AFB699B08023352F816
:101730002330BB61FB6903F003039B000F2202FA15
:1017400003F3DB43BA691340BB617B68494A9342A8
:1017500019D07B68484A934213D07B68474A93422A
:101760000DD07B68464A934207D07B68454A934236
:1017700001D1042308E0072306E0032304E0022349
:1017800002E0012300E00023FA6902F00302920064
:101790009340BA691343BB613549FB699B08023327
:1017A000BA6941F82320384B9B68BB613B69DB4336
:1017B000BA691340BB613B685B6803F48013002B7C
:1017C00003D0BA693B691343BB612F4ABB6993607D
:1017D0002D4BDB68BB613B69DB43BA691340BB61DE
:1017E0003B685B6803F40013002B03D0BA693B69C4
:1017F0001343BB61244ABB69D360234B5B68BB6165
:101800003B69DB43BA691340BB613B685B6803F427
:101810000033002B03D0BA693B691343BB611A4AFA
:10182000BB695360184B1B68BB613B69DB43BA69FA
:101830001340BB613B685B6803F48033002B03D02B
:10184000BA693B691343BB610F4ABB691360FB690B
:101850000133FB61FB690F2B7FF6A2AE00BF00BF17
:101860002437BD465DF8047B704700BF0038024056
:10187000003801400000024000040240000802401D
:10188000000C024000100240003C014080B586B0D0
:1018900000AF78607B68002B01D1012367E27B6891
:1018A0001B6803F00103002B75D0884B9B6803F085
:1018B0000C03042B0CD0854B9B6803F00C03082B06
:1018C00012D1824B5B6803F48003B3F5800F0BD118
:1018D0007E4B1B6803F40033002B5BD07B685B6896
:1018E000002B57D1012342E27B685B68B3F5803F50
:1018F00006D1764B1B68754A43F4803313601DE0B4
:101900007B685B68B3F5A02F0CD1704B1B686F4AE6
:1019100043F4802313606D4B1B686C4A43F480339F
:1019200013600BE0694B1B68684A23F48033136033
:10193000664B1B68654A23F4802313607B685B68F1
:10194000002B13D0FFF708FD386108E0FFF704FD16
:1019500002463B69D31A642B01D9032307E25B4B90
:101960001B6803F40033002BF0D014E0FFF7F4FC05
:10197000386108E0FFF7F0FC02463B69D31A642B9C
:1019800001D90323F3E1514B1B6803F40033002B0F
:10199000F0D100E000BF7B681B6803F00203002B5E
:1019A00063D04A4B9B6803F00C03002B0BD0474BD2
:1019B0009B6803F00C03082B1CD1444B5B6803F4B9
:1019C0008003002B16D1414B1B6803F00203002B50
:1019D00005D07B68DB68012B01D00123C7E13B4BBD
:1019E0001B6823F0F8027B681B69DB00374913434F
:1019F0000B603AE07B68DB68002B20D0344B01227F
:101A00001A60FFF7A9FC386108E0FFF7A5FC024661
:101A10003B69D31A022B01D90323A8E12B4B1B6886
:101A200003F00203002BF0D0284B1B6823F0F802D0
:101A30007B681B69DB00254913430B6015E0244BD1
:101A400000221A60FFF788FC386108E0FFF784FC89
:101A500002463B69D31A022B01D9032387E11B4BB2
:101A60001B6803F00203002BF0D17B681B6803F0B6
:101A70000803002B36D07B685B69002B16D0154B12
:101A800001221A60FFF768FC386108E0FFF764FC88
:101A900002463B69D31A022B01D9032367E10B4BA2
:101AA0005B6F03F00203002BF0D01BE0094B002218
:101AB0001A60FFF751FC38610EE0FFF74DFC02465B
:101AC0003B69D31A022B07D9032350E100380240A7
:101AD00000004742800E4742884B5B6F03F00203D1
:101AE000002BEAD17B681B6803F00403002B00F095
:101AF00097800023FB75814B1B6C03F08053002BF8
:101B00000FD10023BB607D4B1B6C7C4A43F080539C
:101B100013647A4B1B6C03F08053BB60BB680123DA
:101B2000FB75774B1B6803F48073002B18D1744B43
:101B30001B68734A43F480731360FFF70DFC386130
:101B400008E0FFF709FC02463B69D31A022B01D9D2
:101B500003230CE16A4B1B6803F48073002BF0D065
:101B60007B689B68012B06D1644B1B6F634A43F073
:101B7000010313671CE07B689B68052B0CD15F4B4E
:101B80001B6F5E4A43F0040313675C4B1B6F5B4A99
:101B900043F0010313670BE0584B1B6F574A23F0C8
:101BA00001031367554B1B6F544A23F0040313675B
:101BB0007B689B68002B15D0FFF7CEFB38610AE0ED
:101BC000FFF7CAFB02463B69D31A41F288329342BF
:101BD00001D90323CBE0494B1B6F03F00203002B19
:101BE000EED014E0FFF7B8FB38610AE0FFF7B4FB72
:101BF00002463B69D31A41F28832934201D903234A
:101C0000B5E03E4B1B6F03F00203002BEED1FB7DD2
:101C1000012B05D1394B1B6C384A23F080531364D8
:101C20007B689B69002B00F0A180344B9B6803F01C
:101C30000C03082B5CD07B689B69022B41D1314B94
:101C400000221A60FFF788FB386108E0FFF784FB89
:101C500002463B69D31A022B01D9032387E0274BA5
:101C60001B6803F00073002BF0D17B68DA697B6896
:101C70001B6A1A437B685B6A9B011A437B689B6AF9
:101C80005B08013B1B041A437B68DB6A1B061B498C
:101C900013434B601B4B01221A60FFF75DFB386159
:101CA00008E0FFF759FB02463B69D31A022B01D922
:101CB00003235CE0114B1B6803F00073002BF0D092
:101CC00054E0104B00221A60FFF746FB386108E031
:101CD000FFF742FB02463B69D31A022B01D90323CB
:101CE00045E0064B1B6803F00073002BF0D13DE08C
:101CF0007B689B69012B07D1012338E00038024043
:101D000000700040600047421B4B5B68FB607B68D3
:101D10009B69012B28D0FB6803F480027B68DB6998
:101D20009A4221D1FB6803F03F027B681B6A9A420A
:101D30001AD1FA6847F6C07313407A68526A920162
:101D4000934211D1FB6803F440327B689B6A5B08C5
:101D5000013B1B049A4207D1FB6803F070627B6869
:101D6000DB6A1B069A4201D0012300E000231846DB
:101D70001837BD4680BD00BF0038024080B584B032
:101D800000AF786039607B68002B01D10123CCE083
:101D9000684B1B6803F007033A689A420CD9654BFD
:101DA0003A68D2B21A70634B1B6803F007033A68B3
:101DB0009A4201D00123B8E07B681B6803F002035C
:101DC000002B20D07B681B6803F00403002B05D098
:101DD000594B9B68584A43F4E05393607B681B68F7
:101DE00003F00803002B05D0534B9B68524A43F481
:101DF00060439360504B9B6823F0F0027B689B68C4
:101E00004D4913438B607B681B6803F00103002B73
:101E100044D07B685B68012B07D1474B1B6803F4F8
:101E20000033002B19D101237FE07B685B68022B14
:101E300003D07B685B68032B07D13F4B1B6803F023
:101E40000073002B09D101236FE03B4B1B6803F0AB
:101E50000203002B01D1012367E0374B9B6823F07D
:101E600003027B685B68344913438B60FFF774FAA5
:101E7000F8600AE0FFF770FA0246FB68D31A41F2F5
:101E80008832934201D903234FE02B4B9B6803F028
:101E90000C027B685B689B009A42EBD1254B1B6868
:101EA00003F007033A689A420CD2224B3A68D2B246
:101EB0001A70204B1B6803F007033A689A4201D05E
:101EC000012332E07B681B6803F00403002B08D079
:101ED000194B9B6823F4E0527B68DB681649134377
:101EE0008B607B681B6803F00803002B09D0124B42
:101EF0009B6823F460427B681B69DB000E49134337
:101F00008B6000F021F802460B4B9B681B0903F025
:101F10000F030A49CB5C22FA03F3094A1360094B09
:101F20001B681846FFF7D4F9002318461037BD4642
:101F300080BD00BF003C024000380240443B000826
:101F4000A0000020A40000202DE9B04F90B000AF09
:101F500000237B630023FB6300233B630023BB63FD
:101F6000594B9B6803F00C03082B0DD0082B00F293
:101F7000A180002B02D0042B03D09BE0534BBB630A
:101F80009BE0534BBB6398E04F4B5B6803F03F0310
:101F90007B634D4B5B6803F48003002B28D04A4BD6
:101FA0005B689B0900223B627A623B6AC3F30800CC
:101FB0000021474B03FB01F2002300FB03F3134412
:101FC000434AA0FB0212FA620A46BA62FA6A134452
:101FD000FB627B6B0022BB61FA61D7E90623D7E97C
:101FE0000A01FEF74DF902460B461346FB6353E028
:101FF000354B5B689B0900223B617A613B69C3F307
:10200000080A4FF0000B52465B464FF000004FF0BD
:102010000001590141EAD261500102460B46B2EB80
:102020000A0863EB0B094FF000024FF000034FEA80
:10203000891343EA98634FEA8812B2EB080463EB12
:1020400009054FF000024FF00003EB0043EA547320
:10205000E20014461D4614EB0A033B6045EB0B03FC
:102060007B604FF000024FF00003D7E9004529469E
:102070008B02214643EA915321468A0210461946B3
:102080007B6B0022BB60FA60D7E90223FEF7F8F809
:1020900002460B461346FB630B4B5B681B0C03F0BD
:1020A000030301335B003B63FA6B3B6BB2FBF3F35F
:1020B000BB6302E0054BBB6300BFBB6B18464037F8
:1020C000BD46BDE8B08F00BF003802400024F400D8
:1020D00040787D0180B400AF034B1B681846BD46B5
:1020E0005DF8047B704700BFA000002080B500AF02
:1020F000FFF7F0FF0246054B9B689B0A03F00703BE
:102100000349CB5C22FA03F3184680BD0038024035
:10211000543B000880B500AFFFF7DCFF0246054BDB
:102120009B685B0B03F007030349CB5C22FA03F3C4
:10213000184680BD00380240543B000880B582B08C
:1021400000AF78607B68002B01D101233FE07B6802
:1021500093F83D30DBB2002B06D17B68002283F878
:102160003C207868FEF70CFF7B68242283F83D2032
:102170007B681B68DA687B681B6822F40052DA60AF
:10218000786800F0CBF97B681B681A697B681B686C
:1021900022F490421A617B681B685A697B681B684D
:1021A00022F02A025A617B681B68DA687B681B6828
:1021B00042F40052DA607B6800221A647B682022B5
:1021C00083F83D207B68202283F83E2000231846B8
:1021D0000837BD4680BD80B58AB002AFF860B960EF
:1021E0003B601346FB8000237B61FB6893F83D3026
:1021F000DBB2202B7CD1BB68002B02D0FB88002BEC
:1022000001D1012375E0FB6893F83C30012B01D12B
:1022100002236EE0FB68012283F83C20FB68002269
:102220001A64FB68212283F83D20FFF795F8786156
:10223000FB68FA889A84FB68FA88DA84FB689B68F2
:10224000B3F5805F08D1FB681B69002B04D1002324
:10225000FB61BB68BB6103E0BB68FB610023BB6142
:10226000FB68002283F83C202AE03B6800937B69EE
:1022700000228021F86800F0E2F80346002B01D02C
:10228000032336E0FB69002B0BD1BB691B881A4680
:10229000FB681B68C2F308025A60BB690233BB616A
:1022A00007E0FB691A78FB681B685A60FB69013319
:1022B000FB61FB68DB8C9BB2013B9AB2FB68DA8462
:1022C000FB68DB8C9BB2002BCFD13B6800937B6912
:1022D00000224021F86800F0B2F80346002B01D03C
:1022E000032306E0FB68202283F83D20002300E062
:1022F000022318462037BD4680BD80B58AB002AFA4
:10230000F860B9603B601346FB8000237B61FB688B
:1023100093F83E30DBB2202B40F08C80BB68002B62
:1023200002D0FB88002B01D1012384E0FB6893F8E5
:102330003C30012B01D102237DE0FB68012283F8B0
:102340003C20FB6800221A64FB68222283F83E20AE
:10235000FB6800221A63FEF7FFFF7861FB68FA88CA
:102360009A85FB68FA88DA85FB689B68B3F5805F1D
:1023700008D1FB681B69002B04D10023FB61BB68FB
:10238000BB6103E0BB68FB610023BB61FB6800220B
:1023900083F83C2043E03B6800937B6900222021C6
:1023A000F86800F04CF80346002B01D0032342E00C
:1023B000FB69002B0CD1FB681B685B689BB2C3F305
:1023C00008039AB2BB691A80BB690233BB611FE084
:1023D000FB689B68B3F5805F07D0FB689B68002BA8
:1023E0000AD1FB681B69002B06D1FB681B685B6880
:1023F000DAB2FB691A7008E0FB681B685B68DBB245
:1024000003F07F03DAB2FB691A70FB690133FB61E9
:10241000FB68DB8D9BB2013B9AB2FB68DA85FB68F7
:10242000DB8D9BB2002BB6D1FB68202283F83E20C7
:10243000002300E0022318462037BD4680BD80B54A
:1024400090B000AFF860B9603B601346FB7150E09C
:10245000BB6CB3F1FF3F4CD0BB6C002B07D0FEF739
:102460007BFF02463B68D31ABA6C9A4241D2FB68A2
:102470001B680C33BB62BB6A53E8003F7B627B6A1C
:1024800023F4D073FB63FB681B680C33FA6B7A632D
:102490003B63396B7A6B41E80023FB62FB6A002BDC
:1024A000E5D1FB681B6814337B617B6953E8003F0F
:1024B0003B613B6923F00103BB63FB681B6814337A
:1024C000BA6B3A62FB61F9693A6A41E80023BB6181
:1024D000BB69002BE5D1FB68202283F83D20FB6817
:1024E000202283F83E20FB68002283F83C2003234F
:1024F0000FE0FB681B681A68BB681340BA689A4211
:102500000CBF01230023DBB21A46FB799A429FD00D
:10251000002318464037BD4680BD00002DE9B04F6E
:10252000C0B000AFC7F8F400D7F8F4301B681B69DF
:1025300023F44050D7F8F430D968D7F8F4301A684B
:1025400040EA01031361D7F8F4309A68D7F8F43001
:102550001B691A43D7F8F4305B691A43D7F8F43093
:10256000DB691343C7F8F830D7F8F4301B68DB6831
:1025700023F4164121F00C01D7F8F4301A68D7F88B
:10258000F8300B43D360D7F8F4301B685B6923F451
:102590004070D7F8F4309969D7F8F4301A6840EAF7
:1025A00001035361D7F8F4301A688F4B9A4205D073
:1025B000D7F8F4301A688D4B9A4204D1FFF7AAFD80
:1025C000C7F8FC0003E0FFF791FDC7F8FC00D7F85F
:1025D000F430DB69B3F5004F40F00C81D7F8FC30E4
:1025E0000022C7F8E830C7F8EC20D7E93A45224680
:1025F0002B469118B9655B41FB65D7E91623214647
:1026000012EB0108294643EB01094FF000024FF09D
:1026100000034FEAC90343EA58734FEAC8029046E1
:102620009946234618EB0303C7F8E0302B4649EBE5
:102630000303C7F8E430D7F8F4305B680022C7F82A
:10264000D830C7F8DC20D7E936120B46DB183B65DB
:10265000134642EB03037B65D7E91423D7E938011E
:10266000FDF70EFE02460B46614BA3FB02235B09FE
:102670001C01D7F8FC300022C7F8D030C7F8D420AE
:10268000D7E9348942464B469118B9645B41FB64F3
:10269000D7E91223414612EB010A494643EB010BED
:1026A0004FF000024FF000034FEACB0343EA5A73A6
:1026B0004FEACA0292469B4643461AEB0303C7F809
:1026C000C8304B464BEB0303C7F8CC30D7F8F43097
:1026D0005B680022C7F8C030C7F8C420D7E93012C1
:1026E0000B46DB183B64134642EB03037B64D7E9DC
:1026F0001023D7E93201FDF7C3FD02460B46114610
:102700003B4BA3FB01235B09642202FB03F3CB1ABF
:10271000DB0003F13202364BA3FB02235B095B00B3
:1027200003F4F8731C44D7F8FC300022C7F8B83023
:10273000C7F8BC20D7E92E8942464B469118B963A9
:102740005B41FB63D7E90E23414651183963494683
:102750004B417B634FF000024FF00003D7E90CAB15
:102760005946CB00514643EA51735146CA001046C0
:102770001946034642469B18C7F8B0304B460A46F6
:1027800042EB0303C7F8B430D7F8F4305B6800229B
:10279000C7F8A830C7F8AC20D7E92A120B46DB18D7
:1027A000BB62134642EB0303FB62D7E90A23D7E976
:1027B0002C01FDF765FD02460B460D4BA3FB0213F2
:1027C0005B09642101FB03F3D31ADB003233084AAF
:1027D000A2FB03235B0903F00702D7F8F4301B6860
:1027E00022449A6005E100BF00100140001401403E
:1027F0001F85EB51D7F8FC300022C7F8A030C7F88E
:10280000A420D7E9288942464B46911839625B419A
:102810007B62D7E9082341465418494643EB01053A
:102820004FF000024FF00003EB0043EA5473E20064
:1028300014461D464346E318C7F898304B4645EB0F
:102840000303C7F89C30D7F8F4305B680022C7F860
:102850009030C7F894204FF000024FF00003D7E902
:10286000244529468B00214643EA917321468A007C
:10287000D7E92601FDF704FD02460B46604BA3FB9A
:1028800002235B091C01D7F8FC300022C7F888300E
:10289000C7F88C20D7E9228942464B469118B96186
:1028A0005B41FB61D7E9062341465118396149462E
:1028B0004B417B614FF000024FF00003D7E904ABBE
:1028C0005946CB00514643EA51735146CA0010465F
:1028D0001946034642469B18C7F880304B460A46C5
:1028E00042EB0303C7F88430D7F8F4305B6800226A
:1028F000BB67FA674FF000024FF00003D7E91E896B
:1029000049468B00414643EA917341468A00D7E924
:102910002001FDF7B5FC02460B46394BA3FB021321
:102920005B09642101FB03F3D31A1B013233344AE0
:10293000A2FB03235B0903F0F0031C44D7F8FC302F
:1029400000223B677A67D7E91C8942464B469118BB
:10295000B9605B41FB60D7E90223414651183960F9
:1029600049464B417B604FF000024FF00003D7E92E
:1029700000AB5946CB00514643EA51735146CA0059
:1029800010461946034642469B18BB664B460A460C
:1029900042EB0303FB66D7F8F4305B6800223B662A
:1029A0007A664FF000024FF00003D7E918894946D4
:1029B0008B00414643EA917341468A00D7E91A01E8
:1029C000FDF75EFC02460B460D4BA3FB02135B09B1
:1029D000642101FB03F3D31A1B013233084AA2FB23
:1029E00003235B0903F00F02D7F8F4301B6822447D
:1029F0009A6000BF07F58077BD46BDE8B08F00BF85
:102A00001F85EB51014B1868704700BFAC000020D8
:102A100070B50D4D0D4C641BA4100026A64209D1C3
:102A20000B4D0C4C01F024F8641BA4100026A642A8
:102A300005D170BD55F8043B98470136EEE755F8CF
:102A4000043B98470136F2E7FC3B0008FC3B0008DA
:102A5000FC3B0008003C000802440346934200D1BE
:102A6000704703F8011BF9E70FB40A4B13B51C6854
:102A700024B1A36913B9204600F05EFA05AB049AAD
:102A8000A1680193204600F067FC02B0BDE8104049
:102A900004B07047AC00002070B50E46054618B172
:102AA00083690BB900F048FAAB69AC6813B92846E2
:102AB00000F042FA2C4B9C4220D16C68636EDB071D
:102AC00005D4A389980502D4A06D00F0D3FAA38998
:102AD00019071DD52369DBB1013EA36816F8011F54
:102AE000013BA36039BB002B38DA22460A21284675
:102AF00000F048F8013011D00A2511E01B4B9C4230
:102B000001D1AC68DAE71A4B9C4208BFEC68D5E704
:102B10002146284600F088F80028DDD04FF0FF3528
:102B2000636EDA0705D4A3899B0502D4A06D00F07B
:102B3000A2FA284670BD002B04DAA2699A4206DC8C
:102B40000A2904D023685A1C22601970C5E722465E
:102B5000284600F017F80130BFD1DFE723680A25C7
:102B60005A1C22601D70DBE7803B0008A03B000878
:102B7000603B0008024B01461868FFF78DBF00BF9D
:102B8000AC000020F8B50E461446054618B183691E
:102B90000BB900F0D1F9214B9C422BD16C68A36991
:102BA000A360A3891A072FD523696BB32369206813
:102BB000C01A6369F6B28342374604DC21462846D0
:102BC00000F026F930BBA368013BA36023685A1CC0
:102BD00022601E7063690130834204D0A389DB0741
:102BE00006D50A2E04D12146284600F011F988B9ED
:102BF0003846F8BD0A4B9C4201D1AC68CFE7094B7F
:102C00009C4208BFEC68CAE72146284600F00CF851
:102C10000028CBD04FF0FF37EAE700BF803B000829
:102C2000A03B0008603B0008324B70B51D680646AB
:102C30000C4625B1AB6913B9284600F07DF92E4B3F
:102C40009C420FD16C68A389B4F90C2019072CD4CD
:102C5000DD0611D40923336042F04003A3814FF015
:102C6000FF303EE0254B9C4201D1AC68EBE7244BA2
:102C70009C4208BFEC68E6E7580712D5616B41B18A
:102C800004F14403994202D0304600F05BFA00237D
:102C90006363A38923F02403A38100236360236972
:102CA0002360A38943F00803A38123694BB9A38957
:102CB00003F42073B3F5007F03D02146304600F0C3
:102CC00001FAA089B4F90C2010F001030AD0002306
:102CD000A36063695B42A361236943B910F080007C
:102CE000BAD170BD810758BF6369A360F4E70020C3
:102CF000F7E700BFAC000020803B0008A03B0008C5
:102D0000603B00088A892DE9F041054610070C4612
:102D100058D44B68002B05DC0B6C002B02DC002028
:102D2000BDE8F081E66A002EF9D0002312F480524B
:102D30002F682B6032D0606DA3895A0705D5636870
:102D4000C01A636B0BB1236CC01A00230246E66AFB
:102D5000216A2846B047431CA38906D129681D294A
:102D60002CD82A4ACA40D60728D500226260D90446
:102D70002269226004D5421C01D12B6803B9606529
:102D8000616B2F600029CAD004F14403994202D03C
:102D9000284600F0D7F900206063C1E7216A0123CB
:102DA0002846B047411CC7D12B68002BC4D01D2B2F
:102DB00001D0162B01D12F60B1E7A38943F0400366
:102DC000A381ADE70F69002FA9D093070E6808BF54
:102DD0004B690F6018BF0023A6EB07088B60B8F1A2
:102DE000000F9CDD216AA66A43463A462846B04752
:102DF000002806DCA38943F04003A3814FF0FF3095
:102E00008EE70744A8EB0008E9E700BF0100402077
:102E100038B50B6905460C4613B90025284638BD60
:102E200018B183690BB900F087F8144B9C421BD191
:102E30006C68B4F90C30002BEFD0626ED00704D46C
:102E4000990502D4A06D00F015F928462146FFF738
:102E500059FF636EDA070546E0D4A3899B05DDD4EC
:102E6000A06D00F008F9D9E7054B9C4201D1AC6890
:102E7000DFE7044B9C4208BFEC68DAE7803B0008C0
:102E8000A03B0008603B0008002310B50446C0E9E1
:102E90000033C0E90433836081814366C28183616A
:102EA000194608225C30FFF7D7FD054B6362054BDE
:102EB000A362054BE362054B2462236310BD00BF90
:102EC00001390008233900085B3900087F39000800
:102ED000014900F0AFB800BF112E000870B568229C
:102EE0004D1E55430E4605F1740100F097F9044656
:102EF00040B10021C0E900160C30A06005F1680265
:102F0000FFF7AAFD204670BD014800F0B3B800BF2E
:102F1000BD010020014800F0AEB800BFBD01002097
:102F2000014800F0A7B800BFBE010020014800F032
:102F3000A2B800BFBE01002010B50446FFF7F0FFA5
:102F4000A3691BB1BDE81040FFF7F0BFC4E912331D
:102F50002365134B134A1B68A262A34204BF0123DB
:102F6000A361204600F020F86060204600F01CF8C5
:102F7000A060204600F018F80022E060042160689C
:102F8000FFF782FFA06801220921FFF77DFFE068BB
:102F900002221221FFF778FF0123A361D2E700BFCD
:102FA0005C3B0008D12E0008F8B50746FFF7ACFFE0
:102FB0001E4B1E68B36913B93046FFF7BDFF483694
:102FC000D6E90134013B03D533680BB33668F7E724
:102FD000B4F90C50D5B9164BE36004F1580065669E
:102FE00000F047F8FFF796FFC4E90155C4E904551E
:102FF0002560A5610822294604F15C00FFF72CFD3D
:10300000C4E90D55C4E912552046F8BD6834D9E726
:1030100004213846FFF762FF044630600028D5D10E
:10302000FFF778FF0C233B60EEE700BF5C3B000836
:103030000100FFFF2DE9F8430646884600F14804E9
:103040000027D4E90195B9F1010905D52468002CC0
:10305000F7D13846BDE8F883AB89012B07D9B5F91C
:103060000E30013303D029463046C0470743683548
:10307000E9E770477047704770B50E46B1F90E101A
:10308000002996B014461D4608DAB6F90C30002225
:103090002A601A0610D44FF480630EE06A4600F0EE
:1030A00095FC0028F1DB019A02F47042A2F500536E
:1030B0005A425A412A60EEE740230020236016B0AE
:1030C00070BD00008B8973B59D0706460C4607D579
:1030D00004F14703236023610123636102B070BDE3
:1030E00001AB6A46FFF7C8FF00990546304600F07D
:1030F00095F848B9B4F90C309A05EFD423F00303DE
:1031000043F00203A381E3E70D4BB362A389206080
:1031100043F08003A381009B6361019B20615BB14D
:10312000B4F90E10304600F063FC28B1A38923F0F7
:10313000030343F00103A381A0890543A581CDE7E3
:10314000D12E000837B5002944D051F8043C019035
:10315000002BA1F10404B8BFE41800F06BFC1E4A78
:103160000198136833B96360146003B0BDE8304060
:1031700000F066BCA34208D9256861198B4201BFE3
:1031800019685B6849192160EDE71A465B680BB165
:10319000A342FAD911685518A5420BD124682144DD
:1031A0005418A3421160E0D11C685B68536021444D
:1031B0001160DAE702D90C230360D6E725686119AC
:1031C0008B4204BF19685B68636004BF49192160C2
:1031D0005460CAE703B030BDC001002070B50E4E88
:1031E0000C463168054611B900F07AFB3060214683
:1031F000284600F075FB431C0AD0C41C24F00304CD
:10320000A04207D0211A284600F06AFB013001D104
:103210004FF0FF34204670BDC40100202DE9F0417D
:10322000CD1C25F0030508350C2D38BF0C25002DCD
:10323000074601DBA94205D90C233B600026304636
:10324000BDE8F0812E4E00F0F5FB33681C4634BB20
:1032500029463846FFF7C2FF431C04464DD1346867
:103260002646002E40D123683146384604EB030839
:1032700000F036FB80453AD1216803356D1A25F000
:10328000030508350C2D38BF0C2529463846FFF7B5
:10329000A5FF01302BD023682B4423600EE0226869
:1032A000521B1ED40B2A16D96119A342256018BFE0
:1032B0005960636808BF316062514B60384604F161
:1032C0000B0600F0BDFB26F00706231DF21AB6D050
:1032D0009B1BA350B3E76268A3420CBF32605A60E5
:1032E000ECE723466468B2E734467668B9E70C2316
:1032F0003B60384600F0A4FBA1E72560DEE700BF95
:10330000C00100209368013B002B10B4936008DAE1
:103310009469A34201DB0A2903D15DF8044BFFF74E
:1033200031BC1368581C1060197008465DF8044BD6
:103330007047F8B506460F461446D518AC4201D181
:10334000002007E014F8011B3A463046FFF7DAFF89
:10335000431CF3D1F8BD00002DE9F04F0D469DB0A0
:1033600014469846064618B183690BB9FFF7E4FD89
:10337000894B9D421BD175686B6ED90705D4AB890B
:103380009A0502D4A86DFFF775FEAB891B0701D51E
:103390002B69EBB929463046FFF746FCC0B16B6E8E
:1033A000DC070ED54FF0FF301DB0BDE8F08F7B4B32
:1033B0009D4201D1B568DFE7794B9D4208BFF568B2
:1033C000DAE7AB899805EDD4A86DFFF754FEE9E77D
:1033D0000023099320238DF82930CDF80C80302369
:1033E000DFF8C0818DF82A304FF0010923469A4654
:1033F00013F8012B0AB1252AF9D1BAEB040B0BD033
:103400005B46224629463046FFF793FF013000F025
:10341000AA80099A5A4409929AF80030002B00F0C9
:10342000A28000234FF0FF32CDE905230AF1010A03
:10343000049307938DF853301A935446052214F8D9
:10344000011B5848FCF7CCFE049AD8B9D10644BFFA
:1034500020238DF85330130744BF2B238DF85330AE
:103460009AF800302A2B15D0079A544600204FF0C6
:103470000A0C214611F8013B303B092B4ED9B0B163
:10348000079214E0A0EB080309FA03F31343049333
:10349000A246D2E7039B191D1B680391002BBBBFFB
:1034A0005B4242F0020207930793B8BF049223786D
:1034B0002E2B0CD163782A2B35D1039B1A1D1B6848
:1034C0000392002BB8BF4FF0FF3302340593DFF8AF
:1034D000E4A0217803225046FCF782FE40B140234D
:1034E000A0EB0A0003FA00F0049B034301340493A9
:1034F00014F8011B2C488DF828100622FCF770FEEA
:1035000000283FD0294B1BBB039B073323F0070345
:1035100008330393099B3B44099367E70CFB023292
:103520000C460120A5E700230134059319464FF00E
:103530000A0C204610F8012B303A092A03D9002B37
:10354000C5D00591C3E70CFB012104460123F0E738
:1035500003AB00932A46164B04A93046AFF3008014
:103560000746781CD6D16B6ED90705D4AB899A056E
:1035700002D4A86DFFF77FFDAB895B063FF512AF64
:10358000099811E703AB00932A46094B04A930467A
:1035900000F080F8E4E700BF803B0008A03B000893
:1035A000603B0008C03B0008CA3B00080000000068
:1035B00033330008C63B00082DE9F047164699460C
:1035C0008A680B69DDF820809342B8BF13463360E8
:1035D00091F8432007460C460AB101333360236853
:1035E000990642BF336802333360256815F006053B
:1035F00006D104F1190AE36832689B1AAB4226DC53
:1036000094F84320131E226818BF012392062BD47E
:1036100004F1430249463846C04701301ED02368B2
:10362000E568326803F00603042B08BFAD1AA368EF
:1036300022690CBF25EAE57500259342C4BF9B1A99
:10364000ED1800261A34B5421AD1002008E00123F3
:10365000524649463846C047013003D14FF0FF304B
:10366000BDE8F0870135C6E7E1185A1C302081F823
:103670004300224494F8451082F843100233C7E710
:103680000123224649463846C0470130E6D001367C
:10369000D9E700002DE9FF470F7E0C9D782F91465A
:1036A00080460C469A4601F1430207D8622F0AD899
:1036B000002F00F0D880582F00F0A38004F14205BD
:1036C00084F842703AE0A7F16303152BF6D801A104
:1036D00051F823F02D37000841370008BD360008A7
:1036E000BD360008BD360008BD3600084137000869
:1036F000BD360008BD360008BD360008BD360008DE
:103700004D380008713700082F380008BD36000812
:10371000BD3600086F380008BD3600087137000854
:10372000BD360008BD360008373800082B681A1D62
:103730001B682A6004F1420584F842300123A3E0AB
:1037400020682968060601F104030AD50E682B607B
:10375000002E03DA2D23764284F843305E480A2394
:1037600019E00E682B6010F0400F18BF36B2EFE77B
:103770002B682068191D2960010601D51E6802E02A
:103780004606FBD51E8854486F2F0CBF08230A231A
:10379000002184F843106568A560002DA2BF216850
:1037A00021F0040121600EB9002D4DD01546B6FB65
:1037B000F3F103FB1167C75D05F8017D3746BB4296
:1037C0000E46F4D9082B0BD12368DE0708D52369F0
:1037D00061689942DEBF302305F8013C05F1FF35F1
:1037E000521B2261CDF800A04B4603AA2146404659
:1037F000FFF7E2FE01304CD14FF0FF3004B0BDE8DE
:10380000F087354881F845702968236851F8046BC2
:1038100029601D0614D5DF0744BF43F02003236051
:103820001EB9236823F0200323601023B0E7236828
:1038300043F0200323607823284884F84530E3E7E9
:10384000590648BFB6B2E6E71546BBE72B682668BF
:103850006169181D286035061B6801D5196002E0F2
:103860007006FBD51980002323611546BAE72B6843
:103870001A1D2A601D68626800212846FCF7B0FC0A
:1038800008B1401B606063682361002384F8433003
:10389000A8E723692A4649464046D0470130ABD0C5
:1038A00023689B0713D4E068039B9842B8BF18466F
:1038B000A4E70123324649464046D04701309BD019
:1038C0000135E36803995B1AAB42F2DCEBE70025B4
:1038D00004F11906F5E700BFD13B0008E23B000800
:1038E00038B5064D0023044608462B60FDF75CFC06
:1038F000431C02D12B6803B1236038BDC8010020EE
:1039000010B50C46B1F90E1000F0A0F80028ABBFBE
:10391000636DA3891B1823F48053ACBF6365A38137
:1039200010BD2DE9F0411F468B89DB0505460C468D
:10393000164605D5B1F90E100223002200F068F8F2
:10394000A389B4F90E1023F48053A38132463B4679
:103950002846BDE8F04100F017B810B50C46B1F9A3
:103960000E1000F055F8431CA38915BF606523F4C1
:10397000805343F48053A38118BFA38110BDB1F9D4
:103980000E1000F013B8000038B5074D0446084685
:10399000114600222A601A46FDF7B5FB431C02D1EE
:1039A0002B6803B1236038BDC801002038B5064D2F
:1039B0000023044608462B60FDF7C1FB431C02D1DF
:1039C0002B6803B1236038BDC801002038B5074D0E
:1039D00000230446084611462B60FDF7BCFB431C40
:1039E00002D12B6803B1236038BD00BFC80100209D
:1039F00038B5064D0023044608462B60FDF7BBFB97
:103A0000431C02D12B6803B1236038BDC8010020DC
:103A100038B5074D04460846114600222A601A466A
:103A2000FDF7B4FB431C02D12B6803B1236038BD02
:103A3000C80100200148FFF71DBB00BFBC010020EA
:103A40000148FFF718BB00BFBC01002038B5074D87
:103A500004460846114600222A601A46FDF736FB46
:103A6000431C02D12B6803B1236038BDC80100207C
:103A7000F8B500BFF8BC08BC9E467047F8B500BF5B
:083A8000F8BC08BC9E4670472B
:103A88000A6D6F766564206F7665722074686520AC
:103A980065646765206F662074686520696E707557
:103AA800742C20747279696E6720746F2066696E51
:103AB800642074686520244750776861746576656A
:103AC800722C206A203E3D20696E70757453697AA5
:103AD800650D00000A70617273696E67206661691E
:103AE8006C65642C207374617274203D3D20494ECE
:103AF800545F4D4158202D20310D00000A7061722D
:103B080073696E67206661696C65642C20706F69E3
:103B18006E746572203E3D20696E70757453697AC3
:103B2800650D0000244750474741000068656C6CEC
:103B38006F0A000025730A0A000000000000000058
:103B48000000000001020304060708090000000045
:103B580001020304B0000020000000000000000083
:103B6800000000000000000000000000000000004D
:103B7800000000000000000000000000000000003D
:103B8800000000000000000000000000000000002D
:103B9800000000000000000000000000000000001D
:103BA800000000000000000000000000000000000D
:103BB8000000000000000000232D302B2000686C5E
:103BC8004C00656667454647003031323334353638
:103BD8003738394142434445460030313233343571
:0C3BE8003637383961626364656600009E
:083BF400BCC6FF7F01000000C8
:043BFC00C5010008F7
:043C0000A101000816
:103C04000A6C61746974756465206973202E2E20B2
:103C14002E2E2E2E2E2E2E2E2C206C6F6E67697457
:103C2400756465206973202E2E2E202E2E2E2E2EA6
:103C34002E2E2E2C20686569676874206973202EE7
:103C44002E2E2E2E2E2E2E2E204D0D0A000000007C
:103C54000A6C61746974756465206973202E2E2062
:103C64002E2E2E2E2E2E2E2E2C206C6F6E67697407
:103C7400756465206973202E2E2E202E2E2E2E2E56
:103C84002E2E2E2C20686569676874206973202E97
:103C94002E2E2E2E2E2E2E2E204D0D0A000000002C
:103CA4000024F4001000000001000000B000002017
:103CB40000000000803B0008A03B0008603B0008B7
:103CC40000000000000000000000000000000000F0
:103CD40000000000000000000000000000000000E0
:103CE40000000000000000000000000000000000D0
:103CF40000000000000000000000000000000000C0
:103D040000000000000000000000000000000000AF
:0400000508001239A4
:00000001FF
